:020000040800F2
:1000000000500020ED1400084F04000851040008BF
:1000100053040008550400085704000800000000BD
:10002000000000000000000000000000590400086B
:100030005B040008000000005D0400085F04000885
:100040003515000835150008351500083515000868
:100050003515000835150008351500083515000858
:100060003515000835150008351500083515000848
:100070003515000835150008351500083515000838
:100080003515000835150008351500083515000828
:100090003515000835150008351500083515000818
:1000A0003515000835150008351500083515000808
:1000B00035150008351500083515000835150008F8
:1000C00035150008351500083515000835150008E8
:1000D00035150008351500083515000835150008D8
:1000E000351500083515000835150008000000001A
:1000F0000000000000000000000000000000000000
:0C01000000000000000000005FF808F1A3
:10010C000348044B834202D0034B03B1184770479A
:10011C000C0000200C0000200000000005480649DF
:10012C000B1AD90F01EBA301491002D0034B03B1F9
:10013C00184770470C0000200C0000200000000045
:10014C0010B5064C237843B9FFF7DAFF044B13B113
:10015C000448AFF300800123237010BD0C00002075
:10016C00000000003815000808B5044B1BB1044909
:10017C000448AFF30080BDE80840CFE70000000062
:10018C00100000203815000870B50D4E0D4D761B73
:10019C00B61006D00024013455F8043B9847A6420B
:1001AC00F9D1094E094D01F0C1F9761BB61006D0F4
:1001BC000024013455F8043B9847A642F9D170BD90
:1001CC0098150008981500089C150008981500084B
:1001DC0084B00F4B9A6942F020029A619A6902F03E
:1001EC0020020192019A9A6942F004029A619A697A
:1001FC0002F004020292029A9A6942F008029A6191
:10020C009B6903F008030393039B04B0704700BF82
:10021C000010024008B50948094B0360094B4360C4
:10022C0000238360C3604FF48042026143618361A9
:10023C00C361036200F0B4FA08BD00BF28000020BF
:10024C0000540040A086010030B591B00024099400
:10025C000B940C940194029403940494059401223D
:10026C0006924FF48033079308940A9202250D9559
:10027C000E934FF4E0130F9306A800F095FC0F2398
:10028C000193029503944FF48063049305942946DB
:10029C0001A800F0C7FE11B030BD000008B5022166
:1002AC00002000F07CF80A4800F0C2F84FF47A7095
:1002BC0000F050FC0621012000F071F8054800F018
:1002CC00B7F84FF4FA6000F045FC00F05BF808BD9D
:1002DC00501500086415000808B500F017FCFFF76E
:1002EC00B3FFFFF775FFFFF795FF00F066F8FFF718
:1002FC00D5FFFEE700B585B000F0F0030001C0B2F9
:10030C0043F00C028DF80C2043F008038DF80D30EF
:10031C0040F00C038DF80E3040F008008DF80F0003
:10032C0064230093042303AA4E21034800F00CFB22
:10033C0005B05DF804FB00BF2800002000B585B0B7
:10034C0000F0F0030001C0B243F00D028DF80C2058
:10035C0043F009038DF80D3040F00D038DF80E308D
:10036C0040F009008DF80F0064230093042303AAC6
:10037C004E21034800F0E8FA05B05DF804FB00BF1D
:10038C002800002010B58020FFF7B4FF002403E004
:10039C002020FFF7D3FF0134452CF9DD10BD08B543
:1003AC0028B1012806D0C8B2FFF7A4FF08BD41F060
:1003BC008001F8E741F0C001F5E708B5322000F004
:1003CC00C9FB3020FFF796FF052000F0C3FB30205F
:1003DC00FFF790FF012000F0BDFB3020FFF78AFFF4
:1003EC000A2000F0B7FB2020FFF784FF0A2000F062
:1003FC00B1FB2820FFF77EFF012000F0ABFB0820AB
:10040C00FFF778FF012000F0A5FB0120FFF772FF3A
:10041C00012000F09FFB012000F09CFB0620FFF761
:10042C0069FF012000F096FB0C20FFF763FF08BD6D
:10043C0010B50446207818B10134FFF77FFFF9E7B7
:10044C0010BD7047FEE7FEE7FEE7FEE7704770471A
:10045C00704708B500F06CFB08BD000082B00E4B75
:10046C009A6942F001029A619A6902F001020092C3
:10047C00009ADA6942F08052DA61DB6903F080534A
:10048C000193019B054A536823F0E06343F000732A
:10049C00536002B0704700BF0010024000000140E2
:1004AC0010B586B00023029303930493059302685E
:1004BC00114B9A4201D006B010BD104CA36943F009
:1004CC000803A361A36903F008030093009BC023F6
:1004DC000293122303930323059302A9084800F007
:1004EC006DFEE36943F40013E361E36903F4001365
:1004FC000193019BDFE700BF005400400010024055
:10050C00000C014003685A6912F4806F01D100207D
:10051C0070476FF480625A6100230363202280F8D5
:10052C003D2080F83E30026C42F00402026480F8F8
:10053C003C30012070472DE9F04107460D469046AE
:10054C001E4622E000F000FB069BC01AB04200D809
:10055C00DEB900233B63202287F83D2087F83E302C
:10056C003A6C42F020023A6487F83C3001201AE0E1
:10057C003B689C6925EA0404A4B2B4FA84F46409C7
:10058C00A0450FD1B6F1FF3FDCD1C5F30743012BDA
:10059C00EED13B685C6925EA0404A4B2B4FA84F495
:1005AC006409EDE70020BDE8F0812DE9F041054636
:1005BC000E46174698463DE01A6842F400721A60DF
:1005CC002B686FF480625A6100232B63202285F81C
:1005DC003D2085F83E302A6C42F004022A6485F8EE
:1005EC003C30012034E000F0AFFAA0EB0800B84238
:1005FC0000D8FFB900232B63202285F83D2085F815
:10060C003E302A6C42F020022A6485F83C300120EE
:10061C001EE02B689C6926EA0404A4B2003C18BFB7
:10062C000124A4B12B685A6912F4806FC4D1B7F1BC
:10063C00FF3FD8D1C6F30743012BEAD12B685C6985
:10064C0026EA0404A4B2003C18BF0124E9E7002008
:10065C00BDE8F081F0B583B004460D4616461F4642
:10066C00C36A082B0DD0012B0BD013F5803F08D09B
:10067C00036B122B0AD10268136843F48073136066
:10068C0004E02268136843F48073136000973346C8
:10069C0000224FF001112046FFF74DFF10BB2369DC
:1006AC00B3F5804F0CD1236805F0FE051D613B4668
:1006BC0032460F492046FFF778FFB8B903B0F0BDBA
:1006CC00EB11226803F0060343F0F00313613B4681
:1006DC00324608492046FFF768FF28B92368EDB277
:1006EC001D61E4E70120E9E70120E7E70120E5E7E8
:1006FC00020001000800010070B504460D461646C4
:10070C0023685B6913F0800F1CD12046FFF7FAFEBB
:10071C00D0B9B5F1FF3FF3D000F016FA801BA84218
:10072C0001D8002DECD100232363202284F83D2036
:10073C0084F83E30226C42F02002226484F83C3073
:10074C00012000E0002070BD0120FCE770B50446DC
:10075C000D46164623685B6913F0040F1CD1204626
:10076C00FFF7D0FED0B9B5F1FF3FF3D000F0ECF9B4
:10077C00801BA84201D8002DECD10023236320223A
:10078C0084F83D2084F83E30226C42F02002226432
:10079C0084F83C30012000E0002070BD0120FCE713
:1007AC00002800F0C280F8B5044690F83D30002BCC
:1007BC006DD0242384F83D302268136823F00103A4
:1007CC00136000F0EBFC62685A4B9A4264D85A4BA7
:1007DC0098428CBF00230123002B40F0A880574D7A
:1007EC00A5FB0035AF0C2668716821F03F0141EA8A
:1007FC009541716021680B6A23F03F0365684D4A8F
:10080C0095424FD87A1C13430B622568E96921F491
:10081C004F4121F0FF016368464A93424CD801389E
:10082C005B00B0FBF3F0013040F6FC73184278D05B
:10083C00C0F30B030B43EB6121680B6823F0C0037F
:10084C00E269206A024313430B6021688B6823F42E
:10085C00034323F0FF032269E068024313438B60D8
:10086C002168CB6823F0FF036269A069024313433C
:10087C00CB602268136843F00103136000202064EE
:10088C00202384F83D30206384F83E00F8BD80F8C6
:10089C003C30FFF705FE8CE7294B98428CBF0023B8
:1008AC00012399E74FF4967202FB07F2254DA5FB45
:1008BC00025292090132A6E7A268BAB9461E03EBAE
:1008CC004307B6FBF7F60136C6F30B06B6FA86F607
:1008DC00760946BBC2B9421E03EB4303B2FBF3F2EB
:1008EC000132C2F30B0242F40043A3E7461E03EBB2
:1008FC00830707EB8707B6FBF7F60136C6F30B0643
:10090C00B6FA86F67609E4E7421E03EB830303EBA3
:10091C008303B2FBF3F20132C2F30B0242F4404305
:10092C0088E7042386E7012384E701207047012030
:10093C00ACE700BFA08601007F841E0083DE1B4352
:10094C00FF083D00D34D62102DE9F04385B00446FD
:10095C000F46914698460C9E00F0F6F8054694F822
:10096C003D00C0B2202804D00227384605B0BDE8AF
:10097C00F0830095192301224F492046FFF7DBFD38
:10098C00002840F0928094F83C30012B00F08F80CE
:10099C00012384F83C3023681A6812F0010F03D14C
:1009AC001A6842F001021A602268136823F400638B
:1009BC001360212384F83D30102384F83E3000234B
:1009CC002364C4F82490A4F82A80638D23853B4BC0
:1009DC00E3622B46324639462046FFF73BFE07467C
:1009EC00002866D10023039323685A6903929B69FC
:1009FC000393039B11E0236C042B01D00127B4E774
:100A0C002268136843F400731360F7E72A463146F3
:100A1C002046FFF79BFE00282ED1238D002B36D0CD
:100A2C002A4631462046FFF767FE0028E3D1626A6A
:100A3C00236812781A61616A4B1C6362638D9BB2E6
:100A4C00013B9BB26385238D013B9BB223852268BE
:100A5C00506910F0040FD9D0002BD7D04B7813610C
:100A6C00636A01336362638D9BB2013B9BB2638506
:100A7C00238D013B2385C9E7236C042B01D001276F
:100A8C0073E72268136843F400731360F7E7226876
:100A9C00136843F400731360202384F83D30002363
:100AAC0084F83E3084F83C305FE702275DE702278C
:100ABC005BE7012759E700BF020010000000FFFFB1
:100ACC0010B504460E4B18784FF47A73B3FBF0F361
:100ADC000C4A1068B0FBF3F000F0C6FC68B90F2CA0
:100AEC0001D901200AE0002221464FF0FF3000F02E
:100AFC0087FC054B1C60002000E0012010BD00BFEE
:100B0C0000000020080000200400002008B5074A5F
:100B1C00136843F010031360032000F05FFC002007
:100B2C00FFF7CEFFFFF79AFC002008BD0020024023
:100B3C00034A1168034B1B780B441360704700BFCA
:100B4C007C00002000000020014B1868704700BF9B
:100B5C007C00002038B50446FFF7F6FF0546B4F1DB
:100B6C00FF3F02D0044B1B781C44FFF7EDFF401BEA
:100B7C00A042FAD338BD00BF0000002082B0084B61
:100B8C001B68084AA2FB03235B0A00FB03F30193D7
:100B9C0000BF019B5A1E0192002BF9D102B0704785
:100BAC0008000020D34D6210002800F0F18170B5D0
:100BBC0082B00446036813F0010F2CD0AA4B5B687B
:100BCC0003F00C03042B1DD0A74B5B6803F00C0344
:100BDC00082B12D06368B3F5803F41D0002B55D160
:100BEC0003F1804303F504331A6822F480321A604F
:100BFC001A6822F480221A6037E09B4B5B6813F46E
:100C0C00803FE7D0984B1B6813F4003F03D0636818
:100C1C00002B00F0BF81236813F0020F75D0924BAC
:100C2C005B6813F00C0F5FD08F4B5B6803F00C0309
:100C3C00082B54D02369002B00F089808B4B0122A8
:100C4C001A60FFF781FF0546874B1B6813F0020FF4
:100C5C0074D1FFF779FF401B0228F5D903209EE1E0
:100C6C00814A136843F480331360636843B3FFF71E
:100C7C006BFF05467C4B1B6813F4003FCBD1FFF791
:100C8C0063FF401B6428F5D9032088E1B3F5A02F3E
:100C9C0009D0754B1A6822F480321A601A6822F453
:100CAC0080221A60E1E703F18043A3F53C331A6814
:100CBC0042F480221A601A6842F480321A60D4E737
:100CCC00FFF742FF0546684B1B6813F4003FA2D0A8
:100CDC00FFF73AFF401B6428F5D903205FE1624B14
:100CEC005B6813F4803FA5D15F4B1B6813F0020FB8
:100CFC0003D02369012B40F04F815B4A136823F02A
:100D0C00F803616943EAC1031360236813F0080F09
:100D1C0032D0A369002B45D0554B01221A60FFF746
:100D2C0013FF0546504B5B6A13F0020F21D1FFF7FE
:100D3C000BFF401B0228F5D9032030E14A4A136807
:100D4C0023F0F803616943EAC1031360DDE7474B05
:100D5C0000221A60FFF7F8FE0546434B1B6813F0A0
:100D6C00020FD2D0FFF7F0FE401B0228F5D903206A
:100D7C0015E10120FFF702FF236813F0040F00F0C8
:100D8C009780394BDB6913F0805F1DD1364BDA69E4
:100D9C0042F08052DA61DB6903F080530193019BCE
:100DAC00012512E0324B00221A60FFF7CDFE0546FA
:100DBC002D4B5B6A13F0020FDED0FFF7C5FE401B14
:100DCC000228F5D90320EAE000252A4B1B6813F40E
:100DDC00807F11D0E368012B22D0002B38D103F196
:100DEC00804303F504331A6A22F001021A621A6A6C
:100DFC0022F004021A6218E01E4A136843F480734E
:100E0C001360FFF7A1FE06461A4B1B6813F4807F94
:100E1C00E0D1FFF799FE801B6428F5D90320BEE0D2
:100E2C00114A136A43F001031362E36873B3FFF7CB
:100E3C008BFE06460C4B1B6A13F0020F37D1FFF7E3
:100E4C0083FE801B41F288339842F3D90320A6E03D
:100E5C00052B11D0044B1A6A22F001021A621A6A8D
:100E6C0022F004021A62E0E7001002400000424245
:100E7C0080044242007000404D4B1A6A42F004025A
:100E8C001A621A6A42F001021A62CEE7FFF75CFEA0
:100E9C000646474B1B6A13F0020F08D0FFF754FEAF
:100EAC00801B41F288339842F3D9032077E0E5B9EF
:100EBC00E369002B72D03E4A526802F00C02082AF9
:100ECC0056D0022B17D03B4B00221A60FFF73CFE8A
:100EDC000446374B1B6813F0007F47D0FFF734FEF6
:100EEC00001B0228F5D9032059E0314AD36923F0BD
:100EFC008053D361DCE72F4B00221A60FFF724FEEE
:100F0C0005462B4B1B6813F0007F06D0FFF71CFE29
:100F1C00401B0228F5D9032041E0236AB3F5803F3A
:100F2C001AD023494B6823F47413226A606A024373
:100F3C0013434B601F4B01221A60FFF705FE04465A
:100F4C001B4B1B6813F0007F0ED1FFF7FDFD001B40
:100F5C000228F5D9032022E0154A536823F4003304
:100F6C00A1680B435360DCE7002018E0002016E07A
:100F7C00012B16D00E4B5B6803F48031226A914230
:100F8C0011D103F47013626A93420ED1002006E073
:100F9C0001207047012002E0012000E0002002B097
:100FAC0070BD0120FBE70120F9E70120F7E700BF46
:100FBC00001002406000424286B0164B0FCB0DF180
:100FCC00180C0CE90F0040F20123ADF80430124B61
:100FDC005B6803F00C02082A02D0104806B0704778
:100FEC00C3F38342624412F8102C13F4803F0CD0EC
:100FFC00094B5B68C3F34043634413F8143C074844
:10100C0000FB02F0B0FBF3F0E8E7054800FB02F050
:10101C00E4E700BF6C1500080010024000127A00D3
:10102C0000093D00002800F0A08070B50D46044674
:10103C00524B1B6803F007038B420BD24F4A1368C9
:10104C0023F007030B431360136803F007038B4271
:10105C0040F08D80236813F0020F17D013F0040FAB
:10106C0004D0474A536843F4E0635360236813F099
:10107C00080F04D0424A536843F460535360404A0B
:10108C00536823F0F003A1680B435360236813F0FB
:10109C00010F31D06368012B20D0022B25D0384AA8
:1010AC00126812F0020F64D035494A6822F003022C
:1010BC0013434B60FFF748FD0646314B5B6803F06A
:1010CC000C036268B3EB820F16D0FFF73DFD801B5B
:1010DC0041F288339842F0D9032045E0284A12683F
:1010EC0012F4003FE0D101203EE0254A126812F0D4
:1010FC00007FD9D1012037E0204B1B6803F0070398
:10110C00AB420AD91D4A136823F007032B43136023
:10111C00136803F00703AB422DD1236813F0040FBF
:10112C0006D0174A536823F4E063E1680B4353601D
:10113C00236813F0080F07D0114A536823F4605347
:10114C00216943EAC1035360FFF736FF0C4B5B6820
:10115C00C3F303130B4AD35CD8400B4B18600B4BF7
:10116C001868FFF7ADFC002070BD0120704701200E
:10117C00FAE70120F8E70120F6E700BF0020024063
:10118C000010024080150008080000200400002018
:10119C00014B1868704700BF0800002008B5FFF726
:1011AC00F7FF044B5B68C3F30223034AD35CD840BC
:1011BC0008BD00BF0010024090150008F0B482B0CA
:1011CC0000252C46A3E07F4FBB4210D007D97E4FA1
:1011DC00BB420CD007F58037BB4208D013E0A7F513
:1011EC008017BB4203D007F57027BB4207D18B6831
:1011FC00002B58D0012B51D04261082503E0A7F5F4
:10120C008017BB42F3D0FF2E4FD88446FF2E4FD809
:10121C00A200DCF800300F27974023EA070305FAF9
:10122C0002F21343CCF800304B6813F0805F6DD0A2
:10123C00664B9A6942F001029A619B6903F00103C3
:10124C000193019BA208971C614B53F8273004F0C3
:10125C000307BF004FF00F0C0CFA07FC23EA0C0C31
:10126C005C4B98422AD003F58063984200F08A8048
:10127C0003F58063984200F0878003F58063984201
:10128C001AD004231BE0CD68BDE7CD680435BAE75E
:10129C00CD680835B7E7CD680C35B4E70261082591
:1012AC00B1E70025AFE70425ADE700F1040CADE78D
:1012BC00A4F108029200ACE7032300E00023BB403A
:1012CC0043EA0C030232424F47F822304B6813F4C6
:1012DC00803F5BD0404A1368334313604B6813F470
:1012EC00003F59D03C4A5368334353604B6813F466
:1012FC00801F57D0384A9368334393604B6813F47C
:10130C00001F55D0344AD3681E43D66001340B6895
:10131C0033FA04F252D00122A24003EA020632EA66
:10132C000303F3D14B68122B3FF64DAF122B3FF654
:10133C006AAF01A757F823F0FB11000893120008BD
:10134C009D120008AF1200081312000813120008B7
:10135C0013120008131200081312000813120008CD
:10136C0013120008131200081312000813120008BD
:10137C001312000813120008131200089712000829
:10138C00A312000801239AE7022398E7124A136874
:10139C0023EA06031360A1E70F4A536823EA060306
:1013AC005360A3E70C4A936823EA06039360A5E70E
:1013BC00094AD36823EA0606D660A7E702B0F0BC58
:1013CC00704700BF000022100000311000100240D6
:1013DC00000001400008014000040140074AD368A6
:1013EC0023F4E0631B041B0C000200F4E0600343D5
:1013FC0043F0BF6343F40033D360704700ED00E06B
:10140C0030B4174BDB68C3F30223C3F10704042C7D
:10141C0028BF04241D1D062D18D9033B4FF0FF35A2
:10142C0005FA04F421EA0401994005FA03F322EACF
:10143C000303194300280BDB0901C9B200F160401A
:10144C0000F5614080F8001330BC70470023E5E7DD
:10145C0000F00F000901C9B2024B1954F4E700BFA8
:10146C0000ED00E014ED00E00138B0F1807F0AD20D
:10147C00064B5860064AF02182F823100020986031
:10148C0007221A6070470120704700BF10E000E08F
:10149C0000ED00E00F4B1A6842F001021A60596827
:1014AC000D4A0A405A601A6822F0847222F4803283
:1014BC001A601A6822F480221A605A6822F4FE021A
:1014CC005A604FF41F029A60044B4FF000629A600E
:1014DC00704700BF001002400000FFF800ED00E074
:1014EC00002103E00B4B5B58435004310A480B4B73
:1014FC0042189A42F6D30A4A02E0002342F8043B0F
:10150C00084B9A42F9D3FFF7C5FFFEF73DFEFEF7F5
:10151C00E3FE7047A0150008000000200C0000201E
:10152C000C00002080000020FEE70000F8B500BF92
:10153C00F8BC08BC9E467047F8B500BFF8BC08BCA8
:04154C009E46704700
:1015500052414D20536F636B6574205465737465FD
:10156000720000006279204179617A00020304056B
:10157000060708090A0B0C0D0E0F101000000000E2
:101580000000000000000000010203040607080933
:08159000000000000102030449
:0415980075010008D1
:04159C004D010008F5
:0C15A00001000000100000000024F40016
:04000005080014EDEE
:00000001FF
